{
  "contractName": "NFTVault",
  "abi": [
    {
      "inputs": [
        {
          "internalType": "address",
          "name": "nftContract",
          "type": "address"
        },
        {
          "internalType": "uint256",
          "name": "tokenId",
          "type": "uint256"
        },
        {
          "internalType": "address",
          "name": "secondSigner",
          "type": "address"
        }
      ],
      "name": "depositNFT",
      "outputs": [],
      "stateMutability": "nonpayable",
      "type": "function"
    },
    {
      "inputs": [
        {
          "internalType": "address",
          "name": "nftContract",
          "type": "address"
        },
        {
          "internalType": "uint256",
          "name": "tokenId",
          "type": "uint256"
        }
      ],
      "name": "withdrawNFT",
      "outputs": [],
      "stateMutability": "nonpayable",
      "type": "function"
    },
    {
      "inputs": [
        {
          "internalType": "address",
          "name": "nftContract",
          "type": "address"
        },
        {
          "internalType": "uint256",
          "name": "tokenId",
          "type": "uint256"
        }
      ],
      "name": "approveWithdraw",
      "outputs": [],
      "stateMutability": "nonpayable",
      "type": "function"
    },
    {
      "inputs": [
        {
          "internalType": "address",
          "name": "nftContract",
          "type": "address"
        },
        {
          "internalType": "uint256",
          "name": "tokenId",
          "type": "uint256"
        }
      ],
      "name": "getApproval",
      "outputs": [
        {
          "internalType": "address",
          "name": "",
          "type": "address"
        },
        {
          "internalType": "address",
          "name": "",
          "type": "address"
        },
        {
          "internalType": "bool",
          "name": "",
          "type": "bool"
        }
      ],
      "stateMutability": "view",
      "type": "function",
      "constant": true
    },
    {
      "inputs": [
        {
          "internalType": "address",
          "name": "nftContract",
          "type": "address"
        },
        {
          "internalType": "uint256",
          "name": "tokenId",
          "type": "uint256"
        }
      ],
      "name": "removeApproval",
      "outputs": [],
      "stateMutability": "nonpayable",
      "type": "function"
    }
  ],
  "bytecode": "0x608060405234801561001057600080fd5b50610cca806100206000396000f3fe608060405234801561001057600080fd5b50600436106100575760003560e01c80634e1ca1201461005c5780636088e93a1461007857806397be552314610094578063b537b269146100b0578063c57d3d9e146100cc575b600080fd5b610076600480360381019061007191906109df565b6100fe565b005b610092600480360381019061008d91906109df565b61021c565b005b6100ae60048036038101906100a99190610a1f565b610523565b005b6100ca60048036038101906100c591906109df565b6106e1565b005b6100e660048036038101906100e191906109df565b610800565b6040516100f593929190610a9c565b60405180910390f35b60008060008473ffffffffffffffffffffffffffffffffffffffff1673ffffffffffffffffffffffffffffffffffffffff168152602001908152602001600020600083815260200190815260200160002090503373ffffffffffffffffffffffffffffffffffffffff168160010160009054906101000a900473ffffffffffffffffffffffffffffffffffffffff1673ffffffffffffffffffffffffffffffffffffffff16146101e3576040517f08c379a00000000000000000000000000000000000000000000000000000000081526004016101da90610b30565b60405180910390fd5b8060010160149054906101000a900460ff166102175760018160010160146101000a81548160ff0219169083151502179055505b505050565b60008060008473ffffffffffffffffffffffffffffffffffffffff1673ffffffffffffffffffffffffffffffffffffffff16815260200190815260200160002060008381526020019081526020016000206040518060600160405290816000820160009054906101000a900473ffffffffffffffffffffffffffffffffffffffff1673ffffffffffffffffffffffffffffffffffffffff1673ffffffffffffffffffffffffffffffffffffffff1681526020016001820160009054906101000a900473ffffffffffffffffffffffffffffffffffffffff1673ffffffffffffffffffffffffffffffffffffffff1673ffffffffffffffffffffffffffffffffffffffff1681526020016001820160149054906101000a900460ff16151515158152505090503373ffffffffffffffffffffffffffffffffffffffff16816000015173ffffffffffffffffffffffffffffffffffffffff16146103b3576040517f08c379a00000000000000000000000000000000000000000000000000000000081526004016103aa90610b9c565b60405180910390fd5b80604001516103f7576040517f08c379a00000000000000000000000000000000000000000000000000000000081526004016103ee90610c2e565b60405180910390fd5b8273ffffffffffffffffffffffffffffffffffffffff166342842e0e308360000151856040518463ffffffff1660e01b815260040161043893929190610c5d565b600060405180830381600087803b15801561045257600080fd5b505af1158015610466573d6000803e3d6000fd5b505050506000808473ffffffffffffffffffffffffffffffffffffffff1673ffffffffffffffffffffffffffffffffffffffff1681526020019081526020016000206000838152602001908152602001600020600080820160006101000a81549073ffffffffffffffffffffffffffffffffffffffff02191690556001820160006101000a81549073ffffffffffffffffffffffffffffffffffffffff02191690556001820160146101000a81549060ff02191690555050505050565b60405180606001604052803373ffffffffffffffffffffffffffffffffffffffff1681526020018273ffffffffffffffffffffffffffffffffffffffff168152602001600015158152506000808573ffffffffffffffffffffffffffffffffffffffff1673ffffffffffffffffffffffffffffffffffffffff168152602001908152602001600020600084815260200190815260200160002060008201518160000160006101000a81548173ffffffffffffffffffffffffffffffffffffffff021916908373ffffffffffffffffffffffffffffffffffffffff16021790555060208201518160010160006101000a81548173ffffffffffffffffffffffffffffffffffffffff021916908373ffffffffffffffffffffffffffffffffffffffff16021790555060408201518160010160146101000a81548160ff0219169083151502179055509050508273ffffffffffffffffffffffffffffffffffffffff166323b872dd3330856040518463ffffffff1660e01b81526004016106aa93929190610c5d565b600060405180830381600087803b1580156106c457600080fd5b505af11580156106d8573d6000803e3d6000fd5b50505050505050565b60008060008473ffffffffffffffffffffffffffffffffffffffff1673ffffffffffffffffffffffffffffffffffffffff168152602001908152602001600020600083815260200190815260200160002090503373ffffffffffffffffffffffffffffffffffffffff168160010160009054906101000a900473ffffffffffffffffffffffffffffffffffffffff1673ffffffffffffffffffffffffffffffffffffffff16146107c6576040517f08c379a00000000000000000000000000000000000000000000000000000000081526004016107bd90610b30565b60405180910390fd5b8060010160149054906101000a900460ff16156107fb5760008160010160146101000a81548160ff0219169083151502179055505b505050565b6000806000806000808773ffffffffffffffffffffffffffffffffffffffff1673ffffffffffffffffffffffffffffffffffffffff16815260200190815260200160002060008681526020019081526020016000206040518060600160405290816000820160009054906101000a900473ffffffffffffffffffffffffffffffffffffffff1673ffffffffffffffffffffffffffffffffffffffff1673ffffffffffffffffffffffffffffffffffffffff1681526020016001820160009054906101000a900473ffffffffffffffffffffffffffffffffffffffff1673ffffffffffffffffffffffffffffffffffffffff1673ffffffffffffffffffffffffffffffffffffffff1681526020016001820160149054906101000a900460ff1615151515815250509050806000015181602001518260400151935093509350509250925092565b600080fd5b600073ffffffffffffffffffffffffffffffffffffffff82169050919050565b60006109768261094b565b9050919050565b6109868161096b565b811461099157600080fd5b50565b6000813590506109a38161097d565b92915050565b6000819050919050565b6109bc816109a9565b81146109c757600080fd5b50565b6000813590506109d9816109b3565b92915050565b600080604083850312156109f6576109f5610946565b5b6000610a0485828601610994565b9250506020610a15858286016109ca565b9150509250929050565b600080600060608486031215610a3857610a37610946565b5b6000610a4686828701610994565b9350506020610a57868287016109ca565b9250506040610a6886828701610994565b9150509250925092565b610a7b8161096b565b82525050565b60008115159050919050565b610a9681610a81565b82525050565b6000606082019050610ab16000830186610a72565b610abe6020830185610a72565b610acb6040830184610a8d565b949350505050565b600082825260208201905092915050565b7f4e6f7420616e20617070726f7665720000000000000000000000000000000000600082015250565b6000610b1a600f83610ad3565b9150610b2582610ae4565b602082019050919050565b60006020820190508181036000830152610b4981610b0d565b9050919050565b7f4e6f74206f776e6572206f6620746865204e4654000000000000000000000000600082015250565b6000610b86601483610ad3565b9150610b9182610b50565b602082019050919050565b60006020820190508181036000830152610bb581610b79565b9050919050565b7f5365636f6e64207369676e657220686173206e6f74207369676e65642061707060008201527f726f76616c000000000000000000000000000000000000000000000000000000602082015250565b6000610c18602583610ad3565b9150610c2382610bbc565b604082019050919050565b60006020820190508181036000830152610c4781610c0b565b9050919050565b610c57816109a9565b82525050565b6000606082019050610c726000830186610a72565b610c7f6020830185610a72565b610c8c6040830184610c4e565b94935050505056fea264697066735822122006e6ef8f3ac176ae4a21c8849ec478f2dbf6f8f3a6cf4ad94c5f748d6d84463464736f6c634300080e0033",
  "immutableReferences": {},
  "source": "// SPDX-License-Identifier: MIT\npragma solidity >=0.4.22 <0.9.0;\nimport \"@openzeppelin/contracts/interfaces/IERC721.sol\";\n\ncontract NFTVault {\n  struct approval {\n    address owner;\n    address secondSigner;\n    bool approved;\n  }\n  // map nftContract => nftID => approval\n  mapping(address => mapping(uint256 => approval)) private approvals;\n\n  function depositNFT(address nftContract, uint tokenId, address secondSigner) public {\n    approvals[nftContract][tokenId] = approval(msg.sender, secondSigner, false);\n    IERC721(nftContract).transferFrom(msg.sender, address(this), tokenId);\n  }\n\n  function withdrawNFT(address nftContract, uint tokenId) public {\n    approval memory data = approvals[nftContract][tokenId];\n    require(data.owner == msg.sender, \"Not owner of the NFT\");\n    require(data.approved, \"Second signer has not signed approval\");\n    IERC721(nftContract).safeTransferFrom(address(this), data.owner, tokenId);\n    delete approvals[nftContract][tokenId];\n  }\n\n  function approveWithdraw(address nftContract, uint tokenId) public {\n    approval storage data = approvals[nftContract][tokenId];\n    require(data.secondSigner == msg.sender, \"Not an approver\");\n    if (!data.approved) {\n      data.approved = true;\n    }\n  }\n\n  function getApproval(address nftContract, uint tokenId) public view returns (address, address, bool) {\n    approval memory data = approvals[nftContract][tokenId];\n    return (data.owner, data.secondSigner, data.approved);\n  }\n\n  function removeApproval(address nftContract, uint tokenId) public {\n    approval storage data = approvals[nftContract][tokenId];\n    require(data.secondSigner == msg.sender, \"Not an approver\");\n    if (data.approved) {\n      data.approved = false;\n    }\n  }\n}",
  "sourcePath": "/Users/emilylin/dev/unleashed/unleashed_mm_snap/packages/truffle/contracts/NFTVault.sol",
  "compiler": {
    "name": "solc",
    "version": "0.8.14+commit.80d49f37.Emscripten.clang"
  },
  "schemaVersion": "3.4.9",
  "updatedAt": "2022-12-15T15:11:39.682Z",
  "networkType": "ethereum",
  "devdoc": {
    "kind": "dev",
    "methods": {},
    "version": 1
  },
  "userdoc": {
    "kind": "user",
    "methods": {},
    "version": 1
  }
}